{
  "contractName": "Upload",
  "abi": [
    {
      "inputs": [
        {
          "internalType": "string",
          "name": "cid",
          "type": "string"
        }
      ],
      "name": "add",
      "outputs": [],
      "stateMutability": "nonpayable",
      "type": "function"
    },
    {
      "inputs": [
        {
          "internalType": "address",
          "name": "_user",
          "type": "address"
        }
      ],
      "name": "allow",
      "outputs": [],
      "stateMutability": "nonpayable",
      "type": "function"
    },
    {
      "inputs": [
        {
          "internalType": "address",
          "name": "_user",
          "type": "address"
        }
      ],
      "name": "disallow",
      "outputs": [],
      "stateMutability": "nonpayable",
      "type": "function"
    },
    {
      "inputs": [
        {
          "internalType": "address",
          "name": "_user",
          "type": "address"
        }
      ],
      "name": "display",
      "outputs": [
        {
          "internalType": "string[]",
          "name": "",
          "type": "string[]"
        }
      ],
      "stateMutability": "view",
      "type": "function",
      "constant": true
    },
    {
      "inputs": [
        {
          "internalType": "address",
          "name": "_user",
          "type": "address"
        }
      ],
      "name": "getAccessList",
      "outputs": [
        {
          "components": [
            {
              "internalType": "address",
              "name": "user",
              "type": "address"
            },
            {
              "internalType": "bool",
              "name": "acess",
              "type": "bool"
            }
          ],
          "internalType": "struct Upload.Acesso[]",
          "name": "",
          "type": "tuple[]"
        }
      ],
      "stateMutability": "view",
      "type": "function",
      "constant": true
    },
    {
      "inputs": [],
      "name": "getFilesSharedWithMe",
      "outputs": [
        {
          "internalType": "string[]",
          "name": "",
          "type": "string[]"
        }
      ],
      "stateMutability": "view",
      "type": "function",
      "constant": true
    }
  ],
  "bytecode": "0x608060405234801561001057600080fd5b50611a01806100206000396000f3fe608060405234801561001057600080fd5b50600436106100625760003560e01c806380efcb3c1461006757806396dc7c3314610097578063a9ed9cb8146100b5578063b0c8f9dc146100d1578063eb39113f146100ed578063ff9913e81461011d575b600080fd5b610081600480360381019061007c9190611372565b610139565b60405161008e919061168f565b60405180910390f35b61009f610343565b6040516100ac919061166d565b60405180910390f35b6100cf60048036038101906100ca9190611372565b6107f6565b005b6100eb60048036038101906100e6919061139b565b610b2e565b005b61010760048036038101906101029190611372565b610ba9565b604051610114919061166d565b60405180910390f35b61013760048036038101906101329190611372565b610dbf565b005b60603373ffffffffffffffffffffffffffffffffffffffff168273ffffffffffffffffffffffffffffffffffffffff1614806101fb5750600160008373ffffffffffffffffffffffffffffffffffffffff1673ffffffffffffffffffffffffffffffffffffffff16815260200190815260200160002060003373ffffffffffffffffffffffffffffffffffffffff1673ffffffffffffffffffffffffffffffffffffffff16815260200190815260200160002060009054906101000a900460ff165b61023a576040517f08c379a0000000000000000000000000000000000000000000000000000000008152600401610231906116d1565b60405180910390fd5b600260008373ffffffffffffffffffffffffffffffffffffffff1673ffffffffffffffffffffffffffffffffffffffff168152602001908152602001600020805480602002602001604051908101604052809291908181526020016000905b82821015610338578382906000526020600020016040518060400160405290816000820160009054906101000a900473ffffffffffffffffffffffffffffffffffffffff1673ffffffffffffffffffffffffffffffffffffffff1673ffffffffffffffffffffffffffffffffffffffff1681526020016000820160149054906101000a900460ff16151515158152505081526020019060010190610299565b505050509050919050565b60606000805b600260003373ffffffffffffffffffffffffffffffffffffffff1673ffffffffffffffffffffffffffffffffffffffff1681526020019081526020016000208054905081101561044c57600260003373ffffffffffffffffffffffffffffffffffffffff1673ffffffffffffffffffffffffffffffffffffffff168152602001908152602001600020818154811061040a577f4e487b7100000000000000000000000000000000000000000000000000000000600052603260045260246000fd5b9060005260206000200160000160149054906101000a900460ff1615610439578180610435906118cd565b9250505b8080610444906118cd565b915050610349565b5060008167ffffffffffffffff81111561048f577f4e487b7100000000000000000000000000000000000000000000000000000000600052604160045260246000fd5b6040519080825280602002602001820160405280156104c257816020015b60608152602001906001900390816104ad5790505b5090506000805b600260003373ffffffffffffffffffffffffffffffffffffffff1673ffffffffffffffffffffffffffffffffffffffff168152602001908152602001600020805490508110156107ec57600260003373ffffffffffffffffffffffffffffffffffffffff1673ffffffffffffffffffffffffffffffffffffffff168152602001908152602001600020818154811061058a577f4e487b7100000000000000000000000000000000000000000000000000000000600052603260045260246000fd5b9060005260206000200160000160149054906101000a900460ff16156107d9576000600260003373ffffffffffffffffffffffffffffffffffffffff1673ffffffffffffffffffffffffffffffffffffffff1681526020019081526020016000208281548110610623577f4e487b7100000000000000000000000000000000000000000000000000000000600052603260045260246000fd5b9060005260206000200160000160009054906101000a900473ffffffffffffffffffffffffffffffffffffffff16905060008060008373ffffffffffffffffffffffffffffffffffffffff1673ffffffffffffffffffffffffffffffffffffffff168152602001908152602001600020905060005b81805490508110156107d5578181815481106106dd577f4e487b7100000000000000000000000000000000000000000000000000000000600052603260045260246000fd5b9060005260206000200180546106f29061189b565b80601f016020809104026020016040519081016040528092919081815260200182805461071e9061189b565b801561076b5780601f106107405761010080835404028352916020019161076b565b820191906000526020600020905b81548152906001019060200180831161074e57829003601f168201915b50505050508686815181106107a9577f4e487b7100000000000000000000000000000000000000000000000000000000600052603260045260246000fd5b602002602001018190525084806107bf906118cd565b95505080806107cd906118cd565b915050610698565b5050505b80806107e4906118cd565b9150506104c9565b5081935050505090565b600160003373ffffffffffffffffffffffffffffffffffffffff1673ffffffffffffffffffffffffffffffffffffffff16815260200190815260200160002060008273ffffffffffffffffffffffffffffffffffffffff1673ffffffffffffffffffffffffffffffffffffffff16815260200190815260200160002060009054906101000a900460ff166108bf576040517f08c379a00000000000000000000000000000000000000000000000000000000081526004016108b6906116b1565b60405180910390fd5b6000600160003373ffffffffffffffffffffffffffffffffffffffff1673ffffffffffffffffffffffffffffffffffffffff16815260200190815260200160002060008373ffffffffffffffffffffffffffffffffffffffff1673ffffffffffffffffffffffffffffffffffffffff16815260200190815260200160002060006101000a81548160ff02191690831515021790555060005b600260003373ffffffffffffffffffffffffffffffffffffffff1673ffffffffffffffffffffffffffffffffffffffff16815260200190815260200160002080549050811015610b2a578173ffffffffffffffffffffffffffffffffffffffff16600260003373ffffffffffffffffffffffffffffffffffffffff1673ffffffffffffffffffffffffffffffffffffffff1681526020019081526020016000208281548110610a2f577f4e487b7100000000000000000000000000000000000000000000000000000000600052603260045260246000fd5b9060005260206000200160000160009054906101000a900473ffffffffffffffffffffffffffffffffffffffff1673ffffffffffffffffffffffffffffffffffffffff161415610b17576000600260003373ffffffffffffffffffffffffffffffffffffffff1673ffffffffffffffffffffffffffffffffffffffff1681526020019081526020016000208281548110610af2577f4e487b7100000000000000000000000000000000000000000000000000000000600052603260045260246000fd5b9060005260206000200160000160146101000a81548160ff0219169083151502179055505b8080610b22906118cd565b915050610957565b5050565b6000803373ffffffffffffffffffffffffffffffffffffffff1673ffffffffffffffffffffffffffffffffffffffff16815260200190815260200160002081908060018154018082558091505060019003906000526020600020016000909190919091509080519060200190610ba5929190611252565b5050565b60603373ffffffffffffffffffffffffffffffffffffffff168273ffffffffffffffffffffffffffffffffffffffff161480610c6b5750600160008373ffffffffffffffffffffffffffffffffffffffff1673ffffffffffffffffffffffffffffffffffffffff16815260200190815260200160002060003373ffffffffffffffffffffffffffffffffffffffff1673ffffffffffffffffffffffffffffffffffffffff16815260200190815260200160002060009054906101000a900460ff165b610caa576040517f08c379a0000000000000000000000000000000000000000000000000000000008152600401610ca1906116f1565b60405180910390fd5b6000808373ffffffffffffffffffffffffffffffffffffffff1673ffffffffffffffffffffffffffffffffffffffff168152602001908152602001600020805480602002602001604051908101604052809291908181526020016000905b82821015610db4578382906000526020600020018054610d279061189b565b80601f0160208091040260200160405190810160405280929190818152602001828054610d539061189b565b8015610da05780601f10610d7557610100808354040283529160200191610da0565b820191906000526020600020905b815481529060010190602001808311610d8357829003601f168201915b505050505081526020019060010190610d08565b505050509050919050565b60018060003373ffffffffffffffffffffffffffffffffffffffff1673ffffffffffffffffffffffffffffffffffffffff16815260200190815260200160002060008373ffffffffffffffffffffffffffffffffffffffff1673ffffffffffffffffffffffffffffffffffffffff16815260200190815260200160002060006101000a81548160ff021916908315150217905550600360003373ffffffffffffffffffffffffffffffffffffffff1673ffffffffffffffffffffffffffffffffffffffff16815260200190815260200160002060008273ffffffffffffffffffffffffffffffffffffffff1673ffffffffffffffffffffffffffffffffffffffff16815260200190815260200160002060009054906101000a900460ff16156110be5760005b600260003373ffffffffffffffffffffffffffffffffffffffff1673ffffffffffffffffffffffffffffffffffffffff168152602001908152602001600020805490508110156110b8578173ffffffffffffffffffffffffffffffffffffffff16600260003373ffffffffffffffffffffffffffffffffffffffff1673ffffffffffffffffffffffffffffffffffffffff1681526020019081526020016000208281548110610fbd577f4e487b7100000000000000000000000000000000000000000000000000000000600052603260045260246000fd5b9060005260206000200160000160009054906101000a900473ffffffffffffffffffffffffffffffffffffffff1673ffffffffffffffffffffffffffffffffffffffff1614156110a5576001600260003373ffffffffffffffffffffffffffffffffffffffff1673ffffffffffffffffffffffffffffffffffffffff1681526020019081526020016000208281548110611080577f4e487b7100000000000000000000000000000000000000000000000000000000600052603260045260246000fd5b9060005260206000200160000160146101000a81548160ff0219169083151502179055505b80806110b0906118cd565b915050610ee5565b5061124f565b600260003373ffffffffffffffffffffffffffffffffffffffff1673ffffffffffffffffffffffffffffffffffffffff16815260200190815260200160002060405180604001604052808373ffffffffffffffffffffffffffffffffffffffff168152602001600115158152509080600181540180825580915050600190039060005260206000200160009091909190915060008201518160000160006101000a81548173ffffffffffffffffffffffffffffffffffffffff021916908373ffffffffffffffffffffffffffffffffffffffff16021790555060208201518160000160146101000a81548160ff02191690831515021790555050506001600360003373ffffffffffffffffffffffffffffffffffffffff1673ffffffffffffffffffffffffffffffffffffffff16815260200190815260200160002060008373ffffffffffffffffffffffffffffffffffffffff1673ffffffffffffffffffffffffffffffffffffffff16815260200190815260200160002060006101000a81548160ff0219169083151502179055505b50565b82805461125e9061189b565b90600052602060002090601f01602090048101928261128057600085556112c7565b82601f1061129957805160ff19168380011785556112c7565b828001600101855582156112c7579182015b828111156112c65782518255916020019190600101906112ab565b5b5090506112d491906112d8565b5090565b5b808211156112f15760008160009055506001016112d9565b5090565b600061130861130384611742565b611711565b90508281526020810184848401111561132057600080fd5b61132b848285611859565b509392505050565b600081359050611342816119b4565b92915050565b600082601f83011261135957600080fd5b81356113698482602086016112f5565b91505092915050565b60006020828403121561138457600080fd5b600061139284828501611333565b91505092915050565b6000602082840312156113ad57600080fd5b600082013567ffffffffffffffff8111156113c757600080fd5b6113d384828501611348565b91505092915050565b60006113e883836114f9565b905092915050565b60006113fc838361163e565b60408301905092915050565b61141181611811565b82525050565b600061142282611792565b61142c81856117cd565b93508360208202850161143e85611772565b8060005b8581101561147a578484038952815161145b85826113dc565b9450611466836117b3565b925060208a01995050600181019050611442565b50829750879550505050505092915050565b60006114978261179d565b6114a181856117de565b93506114ac83611782565b8060005b838110156114dd5781516114c488826113f0565b97506114cf836117c0565b9250506001810190506114b0565b5085935050505092915050565b6114f381611823565b82525050565b6000611504826117a8565b61150e81856117ef565b935061151e818560208601611868565b611527816119a3565b840191505092915050565b600061153f602883611800565b91507f4f207573756172696f206e616f2074656d2061636573736f206120657374652060008301527f6172717569766f2e0000000000000000000000000000000000000000000000006020830152604082019050919050565b60006115a5602183611800565b91507f566f6365206e616f2074656d2061636573736f20612065737461206c6973746160008301527f2e000000000000000000000000000000000000000000000000000000000000006020830152604082019050919050565b600061160b601383611800565b91507f566f6365206e616f2074656d2061636573736f000000000000000000000000006000830152602082019050919050565b6040820160008201516116546000850182611408565b50602082015161166760208501826114ea565b50505050565b600060208201905081810360008301526116878184611417565b905092915050565b600060208201905081810360008301526116a9818461148c565b905092915050565b600060208201905081810360008301526116ca81611532565b9050919050565b600060208201905081810360008301526116ea81611598565b9050919050565b6000602082019050818103600083015261170a816115fe565b9050919050565b6000604051905081810181811067ffffffffffffffff8211171561173857611737611974565b5b8060405250919050565b600067ffffffffffffffff82111561175d5761175c611974565b5b601f19601f8301169050602081019050919050565b6000819050602082019050919050565b6000819050602082019050919050565b600081519050919050565b600081519050919050565b600081519050919050565b6000602082019050919050565b6000602082019050919050565b600082825260208201905092915050565b600082825260208201905092915050565b600082825260208201905092915050565b600082825260208201905092915050565b600061181c8261182f565b9050919050565b60008115159050919050565b600073ffffffffffffffffffffffffffffffffffffffff82169050919050565b6000819050919050565b82818337600083830152505050565b60005b8381101561188657808201518184015260208101905061186b565b83811115611895576000848401525b50505050565b600060028204905060018216806118b357607f821691505b602082108114156118c7576118c6611945565b5b50919050565b60006118d88261184f565b91507fffffffffffffffffffffffffffffffffffffffffffffffffffffffffffffffff82141561190b5761190a611916565b5b600182019050919050565b7f4e487b7100000000000000000000000000000000000000000000000000000000600052601160045260246000fd5b7f4e487b7100000000000000000000000000000000000000000000000000000000600052602260045260246000fd5b7f4e487b7100000000000000000000000000000000000000000000000000000000600052604160045260246000fd5b6000601f19601f8301169050919050565b6119bd81611811565b81146119c857600080fd5b5056fea26469706673582212201db7851b22e2cc573c5ce08808088c751fec083fff48ea40fcf5b0a40ad7976b64736f6c63430008000033",
  "immutableReferences": {},
  "source": "pragma solidity ^0.8.0; // SPDX-License-Identifier: MIT\r\n\r\ncontract Upload {\r\n    struct Acesso {\r\n        address user;\r\n        bool acess;\r\n    }\r\n\r\n    mapping(address => string[]) valor; // Mapping para armazenar os CIDs dos arquivos\r\n    mapping(address => mapping(address => bool)) private permissoes; // Mapping para gerenciar permisses de acesso a arquivos\r\n    mapping(address => Acesso[]) private listaDeAcesso; // Mapping para rastrear quem tem acesso aos arquivos do usurio\r\n    mapping(address => mapping(address => bool)) private dadoAnterior; // Mapping para rastrear se houve histrico de acesso entre dois usurios\r\n\r\n    // Funo para adicionar um arquivo (CID)  lista de arquivos do usurio\r\n    function add(string memory cid) external {\r\n        valor[msg.sender].push(cid);\r\n    }\r\n\r\n    // Funo para conceder acesso a todos os arquivos do usurio a outro usurio\r\n    function allow(address _user) external {\r\n        permissoes[msg.sender][_user] = true;\r\n\r\n        if (dadoAnterior[msg.sender][_user]) {\r\n            for (uint i = 0; i < listaDeAcesso[msg.sender].length; i++) {\r\n                if (listaDeAcesso[msg.sender][i].user == _user) {\r\n                    listaDeAcesso[msg.sender][i].acess = true;\r\n                }\r\n            }\r\n        } else {\r\n            listaDeAcesso[msg.sender].push(Acesso(_user, true));\r\n            dadoAnterior[msg.sender][_user] = true;\r\n        }\r\n    }\r\n\r\n    // Funo para negar acesso a todos os arquivos do usurio\r\n    function disallow(address _user) external {\r\n        require(permissoes[msg.sender][_user], \"O usuario nao tem acesso a este arquivo.\");\r\n\r\n        permissoes[msg.sender][_user] = false;\r\n\r\n        for (uint i = 0; i < listaDeAcesso[msg.sender].length; i++) {\r\n            if (listaDeAcesso[msg.sender][i].user == _user) {\r\n                listaDeAcesso[msg.sender][i].acess = false;\r\n            }\r\n        }\r\n    }\r\n\r\n    // Funo para exibir a lista de CIDs dos arquivos que um usurio tem acesso\r\n    function display(address _user) external view returns (string[] memory) {\r\n        require(_user == msg.sender || permissoes[_user][msg.sender], \"Voce nao tem acesso\");\r\n\r\n        return valor[_user];\r\n    }\r\n\r\n    // Funo para exibir a lista de acessos concedidos pelo usurio\r\n    function getAccessList(address _user) external view returns (Acesso[] memory) {\r\n        require(_user == msg.sender || permissoes[_user][msg.sender], \"Voce nao tem acesso a esta lista.\");\r\n        return listaDeAcesso[_user];\r\n    }\r\n\r\n\r\n    // Funo para verificar quais arquivos foram compartilhados com o usurio\r\n    function getFilesSharedWithMe() external view returns (string[] memory) {\r\n        uint count = 0;\r\n        \r\n        // Conta quantos arquivos foram compartilhados com o endereo atual\r\n        for (uint i = 0; i < listaDeAcesso[msg.sender].length; i++) {\r\n            if (listaDeAcesso[msg.sender][i].acess) {\r\n                count++;\r\n            }\r\n        }\r\n        \r\n        // Cria um array para armazenar os arquivos compartilhados\r\n        string[] memory sharedFiles = new string[](count);\r\n        uint index = 0;\r\n        \r\n        // Preenche o array com os arquivos compartilhados\r\n        for (uint i = 0; i < listaDeAcesso[msg.sender].length; i++) {\r\n            if (listaDeAcesso[msg.sender][i].acess) {\r\n                address owner = listaDeAcesso[msg.sender][i].user;\r\n                string[] storage ownerFiles = valor[owner];\r\n                for (uint j = 0; j < ownerFiles.length; j++) {\r\n                    sharedFiles[index] = ownerFiles[j];\r\n                    index++;\r\n                }\r\n            }\r\n        }\r\n        \r\n        return sharedFiles;\r\n    }\r\n\r\n}\r\n",
  "sourcePath": "C:\\Users\\Brenda\\Downloads\\CloudBlock\\CloudBlock\\contracts\\main.sol",
  "compiler": {
    "name": "solc",
    "version": "0.8.0+commit.c7dfd78e.Emscripten.clang"
  },
  "schemaVersion": "3.4.16",
  "updatedAt": "2024-08-28T12:15:25.634Z",
  "networkType": "ethereum",
  "devdoc": {
    "kind": "dev",
    "methods": {},
    "version": 1
  },
  "userdoc": {
    "kind": "user",
    "methods": {},
    "version": 1
  }
}